:020000040800F2
:100000000010002019170008651700086517000880
:1000100000000000000000000000000000000000E0
:10002000000000000000000000000000651700084C
:1000300000000000000000006517000849080008E3
:1000400065170008651700086517000865170008A0
:100050006517000865170008651700086517000890
:1000600065170008651700080106000865170008F5
:100070006517000865170008651700086517000870
:10008000510C000865170008000000006517000803
:1000900065170008790B0008651700086517000848
:1000A0006517000865170008651700082123000878
:1000B0006517000800000000651700080000000038
:1000C0005FF808F1002805D0054B596B01220A435F
:1000D0005A6304E0024B5A6B01218A435A6370470A
:1000E00000100240094B5968094A0A405A60596891
:1000F0000204120C0A435A60196B064A0A401A633A
:100100001A6B000C104318637047C0460010024081
:10011000FFBFFFFFFFFEFFFF38B5041C3E4B5B68CF
:100120000C221340042B06D0082B07D0002B1CD127
:100130003A4B03601BE0394B036018E0364B5D68B7
:100140005B68AD022D0F0235D90303D4344B5D43F8
:1001500005600CE0304BDB6A0F21194001312F485C
:1001600002F0E6F94543256001E02C4B03602A4B81
:100170005A681206120F2B498A5CD2B22068051CFD
:10018000D5402A1C65605D686D056D0F495DC9B27B
:10019000CA40A2601B6BD90502D4234BE36008E080
:1001A0001D4B5B685D0402D45308E36001E09308D3
:1001B000E360194B1B6B590602D41C4B236102E010
:1001C00080231B022361144B1B6BDD0602D4134BEF
:1001D000636100E06061104B1B6B990701D1A26164
:1001E00019E00D4B1B6B03221340012B01D1A061C1
:1001F00011E0094B1B6B03221340022B03D1802318
:100200001B02A36107E0044B1B6B03221340032B6B
:1002100001D1024BA36138BD0010024000127A00E8
:1002200000093D0000000020809FD50012800000E2
:10023000002904D0044B5A691043586103E0024B73
:100240005A6982435A61704700100240002904D065
:10025000044B9A691043986103E0024B9A69824308
:100260009A61704700100240002904D0044BDA69FB
:100270001043D86103E0024BDA698243DA617047C8
:1002800000100240002904D0044BDA681043D86003
:1002900003E0024BDA688243DA60704700100240E4
:1002A000002904D0044B1A691043186103E0024B83
:1002B0001A6982431A61704700100240430902D153
:1002C0000A4B1A680BE0012B02D1084B1A6A06E0B0
:1002D000022B02D1054B5A6A01E0044B5A6B1F23D3
:1002E0001840C240101C0123184070470010024003
:1002F00010B5074B984209D18024A400201C01218D
:10030000FFF7C0FF201C0021FFF7BCFF10BDC04657
:100310000024014010B5C4688A680B681A43CB6892
:100320001A430B691A434B691A43044B2340134386
:100330000A7952031343C36010BDC04603D2FFFFC6
:10034000002904D0826801231343836003E082689C
:100350000223134383607047836A194381624261B9
:100360007047C046826880231B06134383608268FF
:10037000D20FD207084B05E08268D20FD207013BAB
:10038000002B01D0002AF7D18368002B01DB006C21
:1003900000E000207047C046FFEF000082680423A1
:1003A000134383607047C046006C80B27047C046FC
:1003B000CB0103D58068044B184000E00068014081
:1003C000481E8141C8B27047FFFFFFFE01607047C1
:1003D000F0B55F4656464D464446F0B48A461E4B3D
:1003E00002789A5C914642789A5C904682789A5C50
:1003F0009446002080220926FF25341C49461142DC
:1004000000D02324430053442F1C27401F74240A88
:10041000A4B25C74341C4146114200D023242F1C2A
:1004200027401F70240AA4B25C70341C614611423C
:1004300000D023242F1C274020215F54240AA4B27B
:100440002127DC55520801300828D6D13CBC904603
:100450009946A246AB46F0BDB42B0008F8B55F46FE
:1004600056464D464446F0B483468A461F1C0168F2
:10047000894651460B6898461168CB1B1360002FC4
:1004800012D03C1C41464846C51C0E1C3036FFF7B6
:100490009FFF013C002C02D0311C281CF4E77B009C
:1004A000DF19B9443F01B8444A465B461A604146E9
:1004B000524611603CBC90469946A246AB46F8BDF8
:1004C000F0B583B0051C244B1B68002B41D1224C96
:1004D000012323606060A160171CE260201C1030C3
:1004E000061C0021602202F09FFA331C6033019346
:1004F000F8225200A618201C0830221C0C32F31AD5
:100500001B11164C6343BB4200D93B1C01A9A847F1
:100510000198114BF133FF3398420DD2361A361140
:100520000E4C66437400A41924010021221C02F021
:100530007BFA019B1C190194094C201CF02101F04D
:100540003FF90848012101F071FC201C012101F054
:1005500029F903B0F0BDC046D8000020ABAAAAAA72
:1005600030000240002C014070B582B001900D1C9B
:100570001F4B5E68002E0BD11E48002101F056FC77
:100580001D48002101F00EF90022194B1A602DE0E0
:10059000174BDC68002C0ED101980D1A2D11174B4A
:1005A0005D436A0055192A01002102F03DFA00223C
:1005B0000F4B5A601AE00E4A101C08300C32019999
:1005C0006B1A1B110D494B43A34200D9231C01A9EF
:1005D000B0470198854209D92D1A2D11074B5D436B
:1005E0006A0055192A01002102F01EFA02B070BDFE
:1005F000D8000020002C014030000240ABAAAAAA7B
:1006000008B58020C00001F0E7F800280AD080205B
:10061000C00001F0EBF80C49081C10300131FF312B
:10062000FFF7A2FF8020800001F0D6F800280AD052
:100630008020800001F0DAF80349481CFF30F131D6
:10064000FF31FFF791FF08BDD8000020F0B5474605
:1006500080B49AB0802000010121FFF7F7FD8020CF
:1006600080020121FFF7E4FD01200121FFF7E0FDF9
:1006700018A980239B00189302230B7100248C710E
:10068000CC7103234B719025ED05281C01F066F910
:10069000281C0921022201F0D1F915AD00272C8177
:1006A0006C802C231693394B1868394901F040FFB0
:1006B00001382880AF72374E301C291C01F058FBDE
:1006C00010AD281C01F0CAFC60232B8001236B8035
:1006D000AC606C822C82AC81EC81301C291C01F056
:1006E00025FC0CAD281C01F0C1FBAC812C818023C2
:1006F0009B0198466B81EC80AC806C802C80301C18
:10070000291C01F0A3FB301C012101F0B9FB301CB6
:10071000002101F0ADFC301C002101F077FB736873
:100720009BB208221343B3801B4B01931B4B103326
:10073000029310230393F0230493059480230693DC
:100740005B0007938025ED0008952023099343461D
:100750000A930B94124C201C01A901F005F8301CDF
:10076000291C012201F00CFD0A236A461370577000
:1007700001239370684601F02FFD201C0621012201
:1007800001F020F81AB004BC9046F0BD2000002013
:1007900000366E01002C0140382C0140D8000020AA
:1007A00030000240024B1868434258417047C0462F
:1007B000D800002008B5031C0A1C0248191CFFF7CA
:1007C0007FFE08BD5D04000810B5C308DA00801A7A
:1007D000C0B200290AD00A4AD15C0724201A012499
:1007E0008440201C0843C0B2D05407E0044AD15CC6
:1007F0000724201A01248440A143D15410BDC046CF
:100800003000002000B589B001A8FFF785FC0298F0
:10081000FA21890001F08CFE0002000A0138084B21
:100820005860084A106A0002000AC0210906014304
:10083000116200229A6007221A6009B000BDC0460A
:1008400010E000E000ED00E01C4B1A6901321A6173
:100850005B69002B03D0194B5A69013A5A61184B56
:100860001B68002B09D0164B1A68013A1A601B68E6
:10087000002B02D10122134B1A70134B1B68002B63
:1008800009D0114B1A68013A1A601B68002B02D17B
:1008900001220E4B1A700E4B1B68002B0AD00C4B1A
:1008A0001A68013A1A601B68002B06D10122094B15
:1008B0001A7002E0084A064B1A607047C80200200E
:1008C00068030020740300205C0300206C030020F8
:1008D00070030020ED02002010270000034B586138
:1008E0001A1C5369002BFCD17047C046C802002077
:1008F00070B588B0802080020121FFF7A7FC05AD0C
:1009000000262E816E80204B0693204B18682049CC
:1009100001F00EFE013828800023AB721D4C201C14
:10092000291C01F025FA684601F098FB60236A460D
:100930001380568096231B010293201C694601F008
:10094000B1FA201C0221012201F0FAFB201C012136
:10095000012201F0F5FB201C022101F0FDFB201C0F
:10096000012101F0F9FB201C012101F05FFA0A4B83
:10097000C52292009858094901409950802292035B
:100980001A6008B070BDC046B80B000020000020FF
:1009900040420F000044014000E100E0FF00FFFF83
:1009A00070B58AB08020C0020121FFF741FC08A980
:1009B000022308930B7100258D71CD7103234B71B8
:1009C000194C201C00F0CAFF201C0121002201F05C
:1009D00035F8802040000121FFF746FC05AC258159
:1009E000658064230693114B1868114901F0A0FD3E
:1009F000013820800023A3720E4E301C211C01F010
:100A0000B7F9684601F02AFB60236A461380012388
:100A100053800295301C694601F044FA301C0121D4
:100A200001F004FA0AB070BD000400482000002064
:100A3000007355000020004070B586B08020800211
:100A40000121FFF7F5FB02200121FFF70DFC324CDD
:100A5000201C00F0D7FF022626714023236090253A
:100A6000ED05281C211C00F079FF281C062101221D
:100A700000F0E4FF294D281C01F0BEF9284B18684E
:100A8000284901F055FD01382880274C201C291CDD
:100A900001F06EF9254900250D804E8001238B80E1
:100AA000CD800D81201C01F00DFB201C502101F098
:100AB00073FB201C042101F077FB201C802101F036
:100AC0007FFB01A90D804D808D80194B8B60201C10
:100AD00001F080FA201C0221012201F031FB201CD0
:100AE0000821002201F02CFB201C022101F034FB24
:100AF000201C082101F030FB201C012101F096F997
:100B00000C4BC42292009958FF20814399508022B7
:100B100052021A6006B070BD480300205003002046
:100B20002000002040420F00000400402403002069
:100B3000983A000000E100E010B5012818D1CB0878
:100B4000D800091AC9B2002A0AD00A4AD05C072480
:100B5000611A01248C40211C0143C9B2D15407E021
:100B6000044AD05C0724611A01248C40A043D0546D
:100B700010BDC046FC02002010B53148022101F032
:100B8000EFFA002807D02E48022101F0F5FA0022E2
:100B90002C4B5A6353E02A48012101F0E1FA002866
:100BA0004DD02748012101F0E7FA274B5B889BB223
:100BB000002B38D03222234B5A63234B9B88DBB265
:100BC000002B03D10122204B1A7138E01E4B1B88E9
:100BD0001B0A07D11C4B1A88D2B20132D2B21A704A
:100BE00080225A70184B1A88D2B218498A5C1B8826
:100BF0001B0A1A4207D0124BE122D200DA62962277
:100C0000D2005A6306E00E4B9622D200DA62962298
:100C100092005A630C4B1A88520A5A705A88013A49
:100C200092B25A800BE00022064B5A63044C201CFF
:100C3000012101F091FA201C002101F0F7F810BD0C
:100C400000440140002000406003002030000020EC
:100C500038B58948022101F083FA002800D19AE0D2
:100C6000854C201C022101F087FA201C012101F093
:100C700083FA201C01F008FA051C201C01F006FA7A
:100C80007E4B1B7E012B75D17C4B5B8B9BB2FF2B6C
:100C900067D880B2794B5B8B9BB2002B18D1784A16
:100CA000801880B2774B984208D8682001F0DCFBAE
:100CB000724B5A8B013292B25A835BE06E48082124
:100CC000002201F03DFA6D4B00221A765A8351E062
:100CD000ADB26D4BC21892B2EF235B009A4214D8AA
:100CE0006A4AAB189BB2EE2B0FD8312001F0BCFB47
:100CF000624C618B0139C9B201200122FFF71CFF50
:100D0000638B01339BB2638334E0E238FF3880B2F7
:100D1000EE2814D85E4BED18ADB2EE2D0FD8302072
:100D200001F0A2FB554C618B0139C9B201200022B0
:100D3000FFF702FF638B01339BB263831AE04F4BD3
:100D40005B8B9BB2002B02D0652001F08DFB4A48E3
:100D50000821002201F0F4F9484B00221A765A8348
:100D600008E045480821002201F0EAF9434B00223F
:100D70001A765A83414B1B7E002B0CD13E4C201C13
:100D8000082101F0F9F9201C0821012201F0D8F90D
:100D900001223A4B1A763848082101F0E1F900287F
:100DA00068D03548082101F0E7F9344B1B7E012B50
:100DB00060D1324B5B8B9BB20E2B04D02F4B5B8BE5
:100DC0009BB2182B48D12C4801F060F980B22E4B11
:100DD000C21892B2EF235B009A420ED8312001F084
:100DE00043FB264B598B0139C9B201200122FFF781
:100DF000A3FE742001F038FB1FE0E238FF3880B218
:100E0000EE280ED8302001F02FFB1C4B598B0139F6
:100E1000C9B201200022FFF78FFE742001F024FBED
:100E20000BE015480821002201F08AF9134B00223B
:100E30001A765A830322174B1A70104B02221A7625
:100E40005B8B9BB20E2B03D10122124B1A7009E06F
:100E50000222104B1A7005E00022084B1A7603227A
:100E60000C4B1A7004480821002201F069F9002295
:100E7000024B5A8338BDC04600040040C80200201F
:100E80007FF8FFFFBE0300003FFCFFFF6FF9FFFF8D
:100E9000C7FBFFFF3803002010B586B0802080021A
:100EA0000121FFF7C5F91F4C201C00F0ABFD032307
:100EB0002371802323609020C005211C00F04EFD8B
:100EC000802080000121FFF7C1F90020FFF70AF917
:100ED0000120FFF7F7F86120FFF7F0F90028FAD0BA
:100EE000114C201CFFF704FA00236A461371049387
:100EF00000930422059202930393201C6946FFF796
:100F000009FA201CFFF72EFAC046C0460648012108
:100F1000FFF716FA201C0121FFF74AFA0028F9D042
:100F200006B010BD480300200024014038B5002859
:100F300005D1104880210022FFF70EFA05E00D4888
:100F4000802189020722FFF707FA0A48FFF726FAED
:100F5000084C201C0421FFF72BFA0028F9D0054C7F
:100F6000201CFFF721FA051C201C0421FFF72EFA94
:100F7000281C38BD0024014010B5802080020121CA
:100F8000FFF756F9074C201C00F03CFD01232371AC
:100F900023600023A37163719020C005211C00F021
:100FA000DDFC10BD4803002008B59020C0050121DC
:100FB00000F040FD08BDC04608B59020C0050121E5
:100FC00000F03AFD08BDC04610B580208002012126
:100FD000FFF72EF9084C201C00F014FD01232371AB
:100FE0008023DB0023600023A37163719020C00580
:100FF000211C00F0B3FC10BD4803002008B5902070
:10100000C0058021C90000F015FD08BD08B590207D
:10101000C0058021C90000F00FFD08BD70B580201B
:1010200080020121FFF704F90F4C201C00F0EAFCBC
:1010300001232371222323600025A5716571902669
:10104000F605301C211C00F089FC201C00F0DAFCA5
:101050002571102323600223E3716571301C211C6C
:1010600000F07CFC70BDC0464803002008B590200D
:10107000C005022100F0E0FC08BDC04608B5902084
:10108000C005022100F0D6FC08BDC04608B590207E
:10109000C005202100F0D0FC08BDC04608B5902056
:1010A000C005202100F0C6FC08BDC04610B5FFF702
:1010B000DDFFFA246400201CFFF710FCFFF7DEFFC1
:1010C000201CFFF70BFC10BD08B59020C0051021B7
:1010D00000F0A4FC08BDC04610B501F0A3F901F072
:1010E000A9F9144C00232377134801F00BFA134895
:1010F00001F008FAFA239B0063610E4A111C137F6A
:10110000002B02D14B69002BF9D10A4B5B690020FF
:10111000002B0ED00A4B1C78E4B201F07DF9011CC3
:1011200008482018084A022301F0ACFB431E9841EE
:10113000C0B210BDC8020020182D00081C2D0008E8
:10114000F302002078030020202D000870B5061C53
:101150000D1C01F067F901F06DF9174C002323779E
:10116000301C01F0CFF9154801F0CCF9281C01F032
:10117000C9F9134801F0C6F9FA239B0063610E4ACE
:10118000111C137F002B02D14B69002BF9D10A4BA4
:101190005B690020002B0ED00A4B1C78E4B201F0F2
:1011A0003BF9011C08482018084A022301F06AFB99
:1011B000431E9841C0B270BDC8020020242D000813
:1011C0001C2D0008F302002078030020202D0008C9
:1011D00010B582B0FFF722FF9620000201F04AF816
:1011E000FFF75CFFFA246400201CFFF777FBFFF792
:1011F0005DFF201CFFF772FBFFF76EFF6B46D87197
:1012000007331B78002B13D1FFF740FFFA2464004B
:10121000201CFFF763FBFFF749FF201CFFF75EFB75
:1012200001F00AF89620800101F024F8002052E035
:101230002A49081C0C301431FFF788FF6B46D8711F
:1012400007331B78002B13D1FFF720FFFA2464002B
:10125000201CFFF743FBFFF729FF201CFFF73EFB95
:1012600000F0EAFF9620800101F004F8002032E04F
:101270001A49081C18302431FFF768FF6B46D871F3
:1012800007331B78002B13D1FFF700FFFA2464000B
:10129000201CFFF723FBFFF709FF201CFFF71EFBB5
:1012A00000F0CAFF9620800100F0E4FF002012E069
:1012B000FFF7ECFEFA246400201CFFF70FFBFFF79A
:1012C000F5FE201CFFF70AFB00F0B6FF9620800118
:1012D00000F0D0FF012002B010BDC046B42C0008C1
:1012E000F0B54F464646C0B483B0FFF78BFAFFF720
:1012F00057FBFFF7A1FBFFF7A9F9FFF7F9FAFFF793
:1013000067FFFFF739FEFFF75FFEFFF7C5FDC84B2C
:10131000191C0C3100221A705A709A7003338B42D8
:10132000F9D12D2000F068FA002000F06FFA0220B9
:1013300000F07AFABF4EC04A9146C04B984676E01C
:10134000FF22BB4B1A70FFF72DFA0028FBD0B84FD5
:10135000381C0421FFF72EFAFA20FFF7BFFAFF230B
:101360003B71FFF71FFA0028FBD0B14F381C042156
:10137000FFF720FAFA20FFF7B1FAFF233B72FFF7DD
:1013800011FA0028FBD0AA4F381C0421FFF712FAEB
:10139000FA20FFF7A3FAFF237B72BB72FFF702FA72
:1013A0000028FBD0A24F381C0421FFF703FAFA20D3
:1013B0004000FFF793FA00233B70FFF7F3F9002892
:1013C000FBD09B4F381C0421FFF7F4F9FA20FFF7FC
:1013D00085FA00233B71FFF7E5F90028FBD0944F15
:1013E000381C0421FFF7E6F9FA20FFF777FA00230B
:1013F0003B72FFF7D7F90028FBD08D4F381C042132
:10140000FFF7D8F9FA20FFF769FA00237B72BB7265
:10141000FFF7C8F90028FBD085480421FFF7CAF977
:10142000FFF7C2FD3220FFF759FAFFF7C5FDFFF7BE
:101430004BFE002884D03378002B05D1662001F0C4
:1014400013F801227B4B1A704A461378002B18D0F0
:10145000774B00221A705A709A70DA701A715A71AA
:101460009A71DA711A725A729A72DA72FFF79AF9ED
:101470000028FBD06E480421FFF79CF900226E4B38
:101480001A7042461378002B04D0FFF7BFFD0022EC
:101490006A4B1A706A4FFDE07B7F002B3BD001F056
:1014A00011F8312808D002DC30280FD02EE068284F
:1014B00028D0742814D029E0614B987FC0B2421C18
:1014C000D2B29A770121FFF77FF9E3E05C4B987F76
:1014D000C0B2421CD2B29A770021FFF775F9D9E069
:1014E000584B00251D7080225A70554CA27FD2B2F5
:1014F0005A801D71544800F0C1FBFFF7F9F9657778
:10150000A577C7E000224E4B9A77C3E04C4B0022F0
:101510005A779A77BEE000F0D5FF682812D007DC32
:10152000622869D067284BD0312800D0B2E00FE0A4
:10153000762800D1A8E0792800D189E0722800D06F
:10154000A8E021E001233E4A537700239377A1E0EE
:10155000374BFF21197000225A709A70D9701A7196
:101560005A719971DA711A7259729A72DA72FFF7B6
:1015700019F90028FBD02E480421FFF71BF9334B43
:101580001A6825321A6085E0294BFF211970002264
:101590005A709A70D9701A715A719971DA711A72F7
:1015A00059729A72DA72FFF7FDF80028FBD02048D2
:1015B0000421FFF7FFF8FA229200244B1A6069E039
:1015C0001B4B00221A70FF2159709A70DA70197142
:1015D0005A719A71D9711A725A729972DA72FFF746
:1015E000E1F80028FBD012480421FFF7E3F8FA22C3
:1015F0009200164B1A604DE00D4B00221A705A7083
:10160000FF219970DA701A7159719A71DA71197231
:101610005A729A72D972FFF7C5F80028FBD00448B5
:101620000421FFF7C7F8FA229200084B1A6031E054
:1016300024000020EC020020740300206C03002032
:10164000C80200206003002000440140680300201D
:101650002A4BFF221A705A7000219970DA701A71A1
:1016600059719A71DA7119725A729A72D972FFF7B6
:1016700099F80028FBD021480421FFF79BF8FA22B3
:1016800092001F4B1A6005E0FFF7B8FCFA239B009D
:101690001C4A136000F0C0FE002800D0FCE61A4B84
:1016A0001B78DBB2022B09D0032B0DD0012B0ED1FE
:1016B0000023164A1376144A137008E00023124AD6
:1016C0001370124A137602E000220F4B1A70104B6F
:1016D0001B78002B00D1AAE600220D4B1A700020C7
:1016E000FFF724FC6B46D880DA8892B2094B9A4205
:1016F00000D99CE64C2000F0B7FE98E624000020BC
:10170000680300205C03002038030020C80200208A
:10171000ED0200203D0800000C488546002103E052
:101720000B4B5B58435004310A480B4B42189A420A
:10173000F6D30A4A02E0002313600432084B9A42AF
:10174000F9D300F0D9F8FFF7CBFDFEE70010002039
:10175000282D00080000002024000020D8000020D0
:10176000FC030020FEE7000010B502680C4B1A4095
:101770000B6A8C6823430C6923434C6923438C69AF
:101780002343CC6923434C6A23438C6A234313438A
:101790000360CB6843600C6884604B68C36010BD15
:1017A0000F80FFFF002904D0026801231343036068
:1017B00003E00268014B134003607047FEFF000026
:1017C00041607047002A03D003681943016002E0BA
:1017D00003688B4303607047034B1B681840431E2C
:1017E0009841C0B27047C04600000240014B5860AB
:1017F0007047C04600000240034B187019787F22E2
:101800000A401A707047C04630000020054B5978D6
:101810003F220A405A705A7880011043C0B2587073
:101820007047C04630000020054B5A783C218A435F
:101830005A705A7880001043C0B258707047C04642
:101840003000002082B0002301930093274B1968D9
:10185000802252020A431A60191C80229202A020A0
:10186000C0010B6813400093019B01330193009B5F
:10187000002B02D1019B8342F3D11C4B1B689A03BE
:1018800002D50123009301E000230093009B012B6C
:101890002AD11122164B1A60144B5A685A605A68A2
:1018A0005A605968134A0A405A605968882252039C
:1018B0000A435A601968802252040A431A60191CAC
:1018C000802292040B681342FCD0084B5A68032113
:1018D0008A435A60596802220A435A60191C0C2232
:1018E0004B681340082BFBD102B070470010024038
:1018F00000200240FFFFC0FF08B5124B196801220B
:1019000011431960586810490140596018680F491F
:101910000140196018680E490140196058680D4966
:1019200001405960D96A0F208143D962186B0A4976
:1019300001401963596B9143596300229A60FFF784
:1019400081FF08BD001002400CB8FF08FFFFF6FE43
:10195000FFFFFBFFFFFFC0FFACFEFFFFF0B54F46F0
:101960004646C0B40022002301260327341C9C40B5
:101970000D682540A5423DD10C79013CE4B2012C13
:101980001ED884683D1C9540AC43846085684C79C2
:1019900094402C4384604568ADB2A8461C04240CD6
:1019A000A146351CA5404446AC4384804468A0460B
:1019B0008D792C1C4D46AC4045462C43A4B2848006
:1019C00004683D1C9540AC43046005680C79944064
:1019D0002C430460C468A0461D04ED0B3C1CAC40C5
:1019E000A44644466546AC43C460C568CC7994407F
:1019F0002C43C46001330232102BB7D10CBC90468B
:101A00009946F0BD044B036000230371012242712B
:101A10008371C3717047C046FFFF00000069084032
:101A2000431E9841C0B2704740690840431E984128
:101A3000C0B27047816170470185704710B50723B8
:101A40000B409B00C90889004018016A0F249C4084
:101A5000A1430162016A9A40131C0B43036210BD4B
:101A6000F0B5474680B488B0041C0D1C0368012201
:101A7000934303604268264B134089680B434360DD
:101A80000268244B1A40EB6869680B4329690B43D1
:101A9000134303608268204B13406A6913438360D9
:101AA00001A8FEF739FB1D4B9C4201D1079F00E0C6
:101AB000039F236819040CD57F00B8462F68404661
:101AC000391C00F035FD061C4046391C00F074FD41
:101AD0000AE02A689046381C111C00F029FD061CFB
:101AE000381C414600F068FD2A68520800239142E4
:101AF0005B41F6182368190404D533075B0F084AC5
:101B000016401E43B6B2A68108B004BC9046F0BD94
:101B1000FFCFFFFFF3E9FFFFFFFCFFFF00380140AD
:101B2000F0FF000096239B01036000234360836065
:101B3000C3600C22026143617047C046002904D093
:101B4000026801231343036003E003680122934307
:101B500003607047C905C90D01857047406AC0051B
:101B6000C00D7047002904D08268082313438360A6
:101B700003E08368082293438360704730B5031CF9
:101B80008CB2240AFF25294001258D40291C022CF6
:101B900001D1031D03E0032C01D1031C0833002AEB
:101BA00003D01A681143196002E01A688A431A6068
:101BB00030BDC04610B58BB21B0AFF220A4001247B
:101BC0009440221C012B02D10468224006E0022B23
:101BD00002D14468224001E084682240C3690020A9
:101BE000002A06D0090C012088400340581E83417A
:101BF000D8B210BD090C01238B4003627047C04668
:101C000070B5056A094C2C4004848669046A084D45
:101C100035402A431B011A4392B2064B234001244C
:101C2000234319430283018470BDC046FEFF0000B8
:101C30000CFF0000F5FF000070B5056A0C4C2C404D
:101C400004848669046A0B4D2E401502321C2A4317
:101C500092B21B031A4392B2074B1C4010231C4341
:101C60000B01211C194389B20283018470BDC04657
:101C7000EFFF0000FF0C00005FFF000010B5354BC8
:101C800098420AD180242401201C0121FEF7FAFA8F
:101C9000201C0021FEF7F6FA5BE08023DB0598426A
:101CA00008D101200121FEF7FBFA01200021FEF7F7
:101CB000F7FA4EE0284B984208D102200121FEF7A6
:101CC000EFFA02200021FEF7EBFA42E0234B9842A4
:101CD00008D110200121FEF7E3FA10200021FEF7C1
:101CE000DFFA36E01E4B98420AD180246400201CA3
:101CF0000121FEF7D5FA201C0021FEF7D1FA28E0D9
:101D0000184B98420AD180246402201C0121FEF75E
:101D1000B9FA201C0021FEF7B5FA1AE0124B9842DE
:101D20000AD18024A402201C0121FEF7ABFA201C5A
:101D30000021FEF7A7FA0CE00C4B984209D1802451
:101D4000E402201C0121FEF79DFA201C0021FEF771
:101D500099FA10BD002C0140000400400010004022
:101D60000020004000400140004401400048014084
:101D700010B503689BB2194A904206D08022D20562
:101D8000904202D0164A904203D1702293434A886F
:101D90001343144A904219D00A89134C2340134329
:101DA00003804B68C3620B8803850C4B984208D0B4
:101DB0000E4B984205D00E4B984202D00D4B9842E4
:101DC00001D18B7A03860123838206E0054A1380C2
:101DD0004B68D3620B881385F5E710BD002C0140DA
:101DE0000004004000100040FFFCFFFF00400140E5
:101DF000004401400048014001235B42436000234E
:101E000003800381438083727047C046002905D058
:101E100003689BB280221343038003E00268024BF5
:101E2000134003807047C0467FFF0000002905D0A3
:101E300003689BB201221343038003E00268024B54
:101E4000134003807047C046FEFF00004A880B889D
:101E50001A438B881A43CB881A430B891A434B8940
:101E60001A438B891A434423C252704700230380CC
:101E700043808380C3800381438183817047C04650
:101E8000002906D0426C064B1A4392B24423C25238
:101E900004E0426C5204520C4423C2527047C046C4
:101EA0000080FFFF70B5026A184B13400384056A77
:101EB000426892B28469164B1C400B881C43154B38
:101EC0001D404E888B8933432B43134DA84208D0C5
:101ED000124DA84205D0124DA84202D0114DA84281
:101EE0000DD10825AB43CD892B430425AB438D8809
:101EF0002B430D4D2A404E8A0D8A35432A4382805A
:101F000004838A684263038470BDC046FEFF0000FC
:101F10008CFF0000FDFF0000002C0140004001404C
:101F20000044014000480140FFFCFFFF30B5026A59
:101F3000204B13400384056A43689BB284691E4AA0
:101F400014400A8812021443A4B21C4A2A408D8904
:101F50002D012A4392B24D882D012A4392B2184D89
:101F6000A84208D0174DA8421CD0838004838B68F8
:101F7000836302841DE0144D2B400D8AAD002B437A
:101F80008025AA43CD892D012A43104D2A408D88F2
:101F90002D012A4392B20E4D2B404D8AAD002B43AA
:101FA0009BB2E2E7084D2B400D8AAD002B439BB25C
:101FB000DBE730BDEFFF0000FF8C0000DFFF00001B
:101FC000002C014000400140FFFBFFFFBFFF00006D
:101FD000FFF7000030B5026A194B13400384056A0D
:101FE000426892B2C469174B1C400B881C43164BC5
:101FF0002B408D892D022B439BB24D882D022B4304
:102000009BB2124DA84214D1114D2B40CD892D0207
:102010002B43104D2B408D882D022B439BB20E4D30
:102020002A400D8A2D012A4392B24D8A2D012A435E
:1020300092B2828084838A68C263038430BDC046C2
:10204000FFFE00008CFF0000FFFD0000002C01409F
:10205000FFF7FFFFFFFB0000FFCFFFFF0023038020
:102060004380838083608381C3810382438270477E
:102070008269044B1A400B02111C194389B2018377
:102080007047C046FFF70000406B7047806B704799
:102090008269044B1340038383699BB21943018314
:1020A0007047C046F3FF00008269054B134003836D
:1020B00083699BB20902194389B201837047C04604
:1020C000FFF3000070B54E46454660B4051C0C1C7D
:1020D00049884B424B415B009946A688731E5A1EA5
:1020E00093410222D21A90462388002B12D12389D1
:1020F000321CFFF785FDE188281CFFF7C9FF238903
:10210000281C49464246FFF797FDE188281CFFF747
:10211000CBFF11E02389321CFFF78EFDE188281CDC
:10212000FFF7C2FF2389281C49464246FFF768FD96
:10213000E188281CFFF7ACFF0CBC9046994670BDA7
:10214000002A04D0C3689BB21943818103E0C368AD
:102150009BB28B4383817047C94389B20182704728
:102160000369C06882B200200B4203D011404A1EAE
:102170009141C8B27047C046C94389B201827047D5
:10218000002A04D0C3689BB21943818103E0C3686D
:102190009BB28B43838170478268024B1340194383
:1021A000018170478FFF00008268044B1340038158
:1021B00083689BB2194301817047C046F8FF000055
:1021C0008268044B1340038183689BB219430181E9
:1021D0007047C0467FFF000070B58378002B1FD08A
:1021E0000578AA089200134BD218C0239B00D6583A
:1021F00003210D40E900FF24251C8D40AE43351C12
:102200004678B60134408C40291C2143D1500378D4
:102210001F221A40012393401A1C064B1A6008E043
:1022200003781F21194001238B40191C8023014A88
:10223000D15070BD00E100E010B50A4C201C0A49E5
:102240000022FFF79BFC201C08490022FFF796FCA8
:10225000201C0021FFF772FC802109058023044A1D
:10226000D15010BD003801400501050006010600EF
:1022700000E100E030B589B0051C8020800201211A
:10228000FDF7D6FF8020C0010121FDF7DFFF06A981
:102290000C23069302230B7101238B71CB71032353
:1022A0004B719024E405201CFFF758FB201C0221F1
:1022B0000122FFF7C3FB201C03210122FFF7BEFB15
:1022C0006846FFF72FFC0095114C201C6946FFF76C
:1022D000C7FB201C0021FFF745FC201C0D490122F3
:1022E000FFF74CFC201C0C490122FFF747FC201C87
:1022F0000121FFF723FC094BC622920099580902DD
:10230000090A9950802212051A6009B030BDC046F2
:1023100000380140050105000601060000E100E06B
:1023200010B582B0019B0133019333483349FFF765
:1023300041FC00281FD0324B1B78002B17D0304CAB
:102340006378DBB22F4AD15CC9B22B48FFF702FC9D
:102350002378013BDBB2237063780133DBB2637017
:102360006378DBB2802B02D10022254B5A702248C1
:102370002249FFF73FFC20482349FFF71BFC0028B8
:102380002FD01F4B9B785BB2002B2ADB1C4BDC78D9
:10239000E4B21948FFF7E2FBC0B21C4B185590207D
:1023A000C0052021FFF740FB002809D0144BDB7843
:1023B000DBB2164AD35C0D2B02D10122144B1A70EA
:1023C0000F4BDA780132D2B2DA70DB78DBB2802BD5
:1023D00002D100220A4BDA70094B9A780132D2B24C
:1023E0009A70054BDB691A0703D503480949FFF7C3
:1023F00001FC02B010BDC0460038014006010600D5
:10240000EE0200205800002005010500780300209E
:10241000E402002000030300014B9878C0B270472B
:10242000EE020020024B00221A715A701A70704797
:10243000EE02002038B5094D094C281C211C002251
:10244000FFF79CFB074B0022DA705A719A70281C28
:10245000211C0122FFF792FB38BDC0460038014025
:1024600005010500EE02002008B5011C124BDB69D6
:102470001A0607D5114B1B78002B03D10E48FFF726
:1024800069FB18E00D4B1B785BB2002B13DB0B4B89
:102490001A79D2B20A4881541A780132D2B21A702B
:1024A0001A790132D2B21A711B79DBB2802B02D1B8
:1024B0000022024B1A7108BD00380140EE020020D4
:1024C000580000200D4B9B780020002B15D00B4BA3
:1024D0005A79D2B20A498A5CD2B299780139C9B222
:1024E000997059790131C9B259715B79DBB2101C0D
:1024F000802B02D10021014B59717047EE02002060
:102500007803002030B583B0441C03786A46D37149
:102510000732002B09D0151C2878C0B2FFF7A4FFA2
:1025200023782B700134002BF6D103B030BDC046A8
:10253000002934D00123002210B488422CD3012476
:102540002407A14204D2814202D209011B01F8E70B
:10255000E400A14204D2814202D249005B00F8E7C4
:10256000884201D3401A1A434C08A04202D3001BF0
:102570005C0822438C08A04202D3001B9C08224323
:10258000CC08A04202D3001BDC082243002803D061
:102590001B0901D00909E3E7101C10BC7047002893
:1025A00001D00020C04307B4024802A140180290A5
:1025B00003BDC046190000000029F0D003B5FFF7A5
:1025C000B9FF0EBC4243891A1847C0467047C0463F
:1025D000F0B59446012244465F464D465646904625
:1025E0005242F0B493460124002563198B420CD269
:1025F0005A468618C75C365DB74232D21D1C01248C
:102600009A1A631990468B42F2D3012344466646D8
:1026100001225B42346091460124002598466319EB
:1026200099420ED98246C2445246C75C165DB742F3
:102630001FD944461C1BA1461D1C01246319994245
:10264000F0D84346584601330130834203D349460C
:1026500062461160181C3CBC90469946A246AB46A7
:10266000F0BDB7420DD00123AB4698460135012499
:10267000BBE7B74209D00126A846B146013501247F
:10268000CDE7444505D00134AFE74C4504D00134D3
:10269000C5E71D1C0124A8E71D1C0124BFE7C04697
:1026A000F0B55F46444656464D46F0B4734C8146FD
:1026B000A544101C8B46141C191C05AA1F1CFFF7EF
:1026C00087FF06AEFFAA8046331C1C3280C39342AC
:1026D000FCD17D1E0023002F00D1CCE0E25CE91A82
:1026E00092000133B150BB42F8D1059842462118FF
:1026F000201C00F039FA00286CD1059940467A1A5E
:102700000138012302920090424658469A1A0191DC
:10271000C31B002103928B469C4609E0002903D08D
:10272000019FBB4200D2029B9B440021DC4541D368
:1027300048465844435D9B00F358002BEED10A1ED7
:10274000424500D24246AA420FD24F46BB18A75C70
:10275000BA465F46DB5D9A4504D034E0A75C835CF3
:102760009F4230D10132AA42F8D3009A884500D85E
:102770007FE0009F3B1CE75D4B44BA465F46DB5D54
:102780009A4500D075E0AA46051C081C04E0E15CEF
:10279000EF5CB94203D11A1C531E8242F7D8011CC8
:1027A000281C55460131914205D80198029983446D
:1027B000DC45BDD20020324B9D443CBC904699463E
:1027C000A246AB46F0BD03980021071C5F44BF182A
:1027D000BB46ABE741467B1A434548D30133012052
:1027E00002934346C31A584641469A46C31B404685
:1027F0000139009048460022019088469C46019984
:102800008F187B5D9B00F358002B28D1009BAB42B7
:102810000FD20098CB18205C8146985C009B8145C4
:1028200004D021E0E05CF95C88421DD10133AB4269
:10283000F8D34146404601310ED001990B1C434468
:102840004146615C9B5C994204D007E0215C3B5CA3
:10285000994203D10138F9D2381CACE7029BD21857
:102860009445CCD20020A6E75244D218F8E743465C
:10287000B4E7424696E701256D4236E7E4FBFFFFE9
:102880001C040000F0B544465F464D465646F0B481
:10289000884687B0071C141C1D1E6BD08B4268D85D
:1028A0001F2B6ED81178381C424600F01BF9061E0B
:1028B0005FD0012D5ED03F1AB946C1444D4558D86E
:1028C000291C05AA201CFFF783FE059A8046A11843
:1028D000201C424600F048F900285AD1059B0121EE
:1028E000E81A0193424601239A1A49424B468C4604
:1028F0005B1B039000270020C44402929946021EED
:10290000424500D2424695420DD9B318A15CDB5D29
:10291000994205D038E0F319A15C9B5C994233D110
:1029200001329542F7D86246804500D873E0F1192C
:10293000A35C8B4661449A460B789A456BD1B246AC
:102940005E46AB46251C041C04E0E85CF15C884252
:1029500003D11A1C531E9442F7D3201C56462C1C3C
:102960005D46013090425AD8019A0398BF18B94584
:10297000C5D2002007B03CBC90469946A246AB4663
:10298000F0BDFFF78DFEF5E7029B0020DF19BF18B1
:10299000EDE740462B1A43453FD301334846401BE1
:1029A0009C460593012741464346791A013B8146DF
:1029B000404600228B4601909A46019B9D420FD9CA
:1029C0000199F318605C9B5C98421BD10B1C04E0DE
:1029D000B018E15CC05C814215D101339D42F7D84B
:1029E0005146534601311CD0F018E15C805C8142B5
:1029F0000FD1B01803E0E15CC75CB94209D1013BDB
:102A0000F9D2B7E7019B5A44D2189145D5D200209C
:102A1000B0E76244F9E74246A3E74346BDE7F01951
:102A2000A8E7B018A6E7C046F0B54F464646C0B482
:102A300083B0830752D0541E002A4AD0CEB2031C62
:102A4000032503E0621E002C43D0141C01335A1EE0
:102A500016702B42F6D1032C33D9FF250D402A02E4
:102A600015432A0415430F2C1AD9271C103F3F0980
:102A7000B9463F01B8461027FF18BC4646461A1C07
:102A80006644156055609560D5601032B242F8D149
:102A90004F4601373F010F22DB191440032C10D998
:102AA000271F1E1DBF080196BE00B446019E1A1CBA
:102AB000664420C2B242FCD10137BF000322DB19B9
:102AC0001440002C05D0C9B21C1919700133A3425F
:102AD000FBD103B00CBC90469946F0BD031C141CFE
:102AE000B9E7C046F0B5CCB2830737D0531E002AF1
:102AF0001FD00278A2421DD0032505E0002B18D07C
:102B00000278013BA24215D001302842F6D1032BB6
:102B100011D8002B0DD00278A2420BD0421CC31852
:102B200004E00132511E0978A14203D0101E9842E0
:102B3000F7D10020F0BDFF2631400E0231430E04D4
:102B4000074D0E430268074F7240D1199143294245
:102B5000DFD1043B0430032BF4D8DAE7131CD6E7AB
:102B600080808080FFFEFEFE30B5032A1DD9031C45
:102B70000B439C0710D005780C78431C8018A542A5
:102B800005D015E01D780C780133A54210D1013134
:102B90008342F7D1002030BD03680C68A34204D102
:102BA000043A04300431032AF6D8002AE3D1F1E7CD
:102BB000281BF0E7000000000000000000000000FB
:102BC00001010101010101010202020202020303EB
:102BD00003030404040405050505060606070707A4
:102BE0000808080909090A0A0B0B0B0C0C0D0D0E3D
:102BF0000E0F0F10101111121213131414151516B5
:102C000017171818191A1A1B1C1C1D1E1E1F20200E
:102C100021222323242526262728292A2A2B2C2D46
:102C20002E2F2F30313233343536373838393A3B5E
:102C30003C3D3E3F4041424344454647494A4B4C58
:102C40004D4E4F5051525455565758595B5C5D5E2E
:102C50005F61626364666768696B6C6D6F707173E6
:102C600074757778797B7C7E7F808283858688897E
:102C70008B8C8E8F9192949597989A9B9D9EA0A2F3
:102C8000A3A5A6A8AAABADAFB0B2B4B5B7B9BABC4C
:102C9000BEC0C1C3C5C7C8CACCCECFD1D3D5D7D982
:102CA000DADCDEE0E2E4E6E8E9EBEDEFF1F3F5F79C
:102CB000F9FBFDFF30313233343536373839000017
:102CC00041542B524F4C45003000000041542B43DF
:102CD0004D4F4445000000003100000031323334D4
:102CE0000000000041542B505357440041542B55D1
:102CF0004152540041542B42494E440041542B420E
:102D0000494E440041542B4E414D450041542B52F5
:102D10004D41414400000000415400000D0A0000F4
:082D20004F4B00003D000000D4
:102D28000000000001020304010203040607080969
:102D38000000000000000000010203040607080963
:042D4800006CDC023D
:102D4C000000000000000000000000000000000077
:102D5C000000000000000000000000000000000067
:102D6C000000000000000000000000000000000057
:102D7C000000000000000000000000000000000047
:102D8C000000000000000000000000000000000037
:102D9C000000000000000000000000000000000027
:102DAC000000000000000000000000000000000017
:102DBC000000000000000000000000000000000007
:102DCC0000000000000000000000000000000000F7
:102DDC0000000000000000000000000000000000E7
:102DEC0000000000000000000000000000000000D7
:042DFC0000000000D3
:0400000508000000EF
:00000001FF
